:020000040800F2
:10000000B0090020390200087F1F00089D1B00086E
:100010007D1F000859050008D12A000800000000D3
:100020000000000000000000000000004127000860
:100030005B05000800000000811F0008432700083E
:10004000530200085302000853020008530200083C
:10005000530200085302000853020008530200082C
:10006000530200085302000853020008530200081C
:10007000530200085302000853020008530200080C
:100080005302000853020008530200080000000059
:100090000000000000000000000000005302000803
:1000A00053020008530200085302000853020008DC
:1000B00053020008530200085302000853020008CC
:1000C00053020008530200085302000853020008BC
:1000D0005302000853020008530200080000000009
:1000E00053020008530200085302000800000000F9
:1000F00000000000000000000000000053020008A3
:1001000000000000530200085302000853020008D8
:1001100000000000000000000000000000000000DF
:10012000530200085302000853020008530200085B
:100130005302000800000000000000000000000062
:100140000000000000000000000000005302000852
:10015000530200085302000853020008530200082B
:1001600053020008530200080000000000000000D5
:10017000000000000000000000000000000000007F
:100180000000000053020008000000000000000012
:10019000530200085302000800F002F800F03CF897
:1001A0000AA090E8000C82448344AAF10107DA45D2
:1001B00001D100F031F8AFF2090EBAE80F0013F0E8
:1001C000010F18BFFB1A43F001031847B0290000C4
:1001D000D0290000103A24BF78C878C1FAD8520755
:1001E00024BF30C830C144BF04680C6070470000B1
:1001F0000023002400250026103A28BF78C1FBD830
:10020000520728BF30C148BF0B6070471FB502F0CE
:10021000A3FC1FBD10B510BD00F0D4F81146FFF7C8
:10022000F5FF02F067FC00F0F2F803B4FFF7F2FF0D
:1002300003BC00F0F5F80000094880470948004772
:10024000FEE7FEE7FEE7FEE7FEE7FEE7FEE7FEE786
:10025000FEE7FEE704480549054A064B70470000E3
:10026000D927000899010008B0030020B009002038
:10027000B0050020B005002053EA020C00F06980B0
:100280002DE9F04B4FF00006002B1FBFB3FA83F5AA
:1002900003FA05F424FA05F65E4012BF1643B2FADB
:1002A00082F502FA05F4C5F120051EBF22FA05FC0D
:1002B00044EA0C04203556EA044C4FEA144418BFB3
:1002C000641C4FF000084FF00009904271EB030CE2
:1002D00039D3002919BFB1FA81F701FA07F6B0FA4C
:1002E00080F700FA07F6C7F120071EBF20FA07FCC7
:1002F00046EA0C062037B6FBF4FCA7EB0507103FD7
:1003000007F01F0BCBF120060CFA0BFB2CFA06F6BC
:1003100044BFB3460026202FA4BF5E464FF0000B1B
:100320005BEA060C08BF4FF0010B19EB0B09ABFBA6
:10033000027C48EB0608C01B06FB02CC0BFB03CC7F
:1003400071EB0C01C1E70B46024641464846BDE849
:10035000F08B13B54FF000004FF00001AFF30080B9
:10036000BDE81C4070474FF0000200B513469446AC
:100370009646203922BFA0E80C50A0E80C50B1F1FD
:100380002001BFF4F7AF090728BFA0E80C5048BF11
:100390000CC05DF804EB890028BF40F8042B08BFAF
:1003A000704748BF20F8022B11F0804F18BF00F8AB
:1003B000012B704770477047704700000048704736
:1003C000500300207546FFF7F9FFAE460500694669
:1003D000534620F00700854618B020B5FFF73AFFD6
:1003E000BDE820404FF000064FF000074FF0000836
:1003F0004FF0000B21F00701AC46ACE8C009ACE8B7
:10040000C009ACE8C009ACE8C0098D46704710B51A
:100410000446AFF300802046BDE81040FFF705BF5B
:1004200001491820ABBEFEE726000200704700001D
:10043000464910B54A6822F440324A604A68436827
:100440001A434A6001684A6822F480724A6001686F
:100450004A68036942EA03224A6001684A6822F056
:1004600040724A6001684A6883681A434A600168BA
:100470008A6822F400628A6001688A68C3681A4345
:100480008A60816A6FF07062D14201688A6822F0E6
:1004900070628A6001688A680CD0836A1A438A6035
:1004A00001688A6822F040528A6001688A68C36ADB
:1004B0001A4301E022F040528A6001688A6822F003
:1004C00002028A6001688A68037E42EA43028A6007
:1004D00090F82010002901684A680FD042F40062A9
:1004E0004A6001684A6822F460424A6001684A68CA
:1004F000174C436A04EB43331A4301E022F40062D1
:100500004A600168CA6A22F47002CA620168CA6A53
:10051000838B104C04EB03531A43CA6201688A6848
:1005200022F400728A6001688A6890F8303042EAEA
:1005300043228A6001688A6822F480628A600168C6
:100540008A68406942EA8020886010BD002301402B
:1005500000E0FFFF0000F0FFFEE7704772B6FEE725
:1005600078B50024009490F83C20012A19D001228B
:1005700080F83C200A6807230568092A13D9EE6829
:100580000A3A02EB420293409E43EE600B788A687F
:100590000A3B03EB43039A400368DD682A43DA60B1
:1005A00010E0022078BD2E6902EB420293409E4388
:1005B0002E610B788A6803EB43039A4003681D6938
:1005C0002A431A614A681F23072A13D205686E6BF3
:1005D000521E02EB820293409E436E630A8893B2DE
:1005E0000A79521E02EB820293400268556B2B433C
:1005F000536327E005680D2A12D22E6BD21F02EB3F
:10060000820293409E432E630B790A88DB1F92B2CD
:1006100003EB83039A4003681D6B2A431A6311E0BE
:10062000EE6A0D3A02EB820293409E43EE620B7932
:100630000A880D3B92B203EB83039A400368DD6A9C
:100640002A43DA621B4B0568194A9D420AD10D689C
:10065000122D07D1556825F400055560556845F4FD
:100660008005556005689D421DD1134D0B68AB4256
:1006700001D0112B17D1536823F4800353605368C2
:1006800043F4000353600968A9420CD10B490C4A9A
:100690000968B1FBF2F101EB8101490000E0491E5C
:1006A00000910029FBD180F83C40002078BD00007B
:1006B0000023014000200140120000100C00002027
:1006C00040420F0070B504004FF0000503D0206CCD
:1006D000002610B107E0012070BD204600F01CF894
:1006E000666484F83C60206CC00610D4206C20F452
:1006F000885040F0020020642046FFF799FE6664AF
:10070000206C20F0020040F00100206400E0012590
:1007100084F83C60284670BD10B586B004461421AC
:100720006846FFF720FE1149206888421CD1104816
:100730000021026842F480720260006800F4807058
:1007400005900B481438026842F00102026000680C
:1007500000F001000590102000900320CDE9010178
:100760006946044800F01AF806B010BD00200140A8
:10077000443802400000024070B5044600F004F91D
:100780000546601C02D004480078044400F0FCF8E0
:10079000401BA042FAD370BD000000202DE9F84FA5
:1007A000DFF8B8A1002201240AF1040B03254FF061
:1007B0000F090BF1040E00BF0B6804FA02F6334078
:1007C000B34273D10F7907F00307012F01D0022F35
:1007D00016D187684FEA420805FA08FC27EA0C0799
:1007E000D1F80CC00CFA08FC4CEA070CC0F808C0A1
:1007F0004768B7430E79C6F3001696403E434660FD
:100800000E79F643B6070DD0C768560005FA06FC08
:1008100027EA0C07D1F808C00CFA06FC4CEA070CD2
:10082000C0F80CC00E7906F00306022E10D1D608CF
:1008300000EB8608D8F8206057074FEAD76C09FA12
:100840000CF7BE430F6907FA0CF73743C8F820705E
:1008500006684FEA420C05FA0CF7BE430F7907F021
:10086000030707FA0CF7374307604E6816F4403F5A
:100870006DD03B4E376847F480473760366822F0CA
:10088000030706F480460096364E07EB060CDCF8AC
:10089000086897073F0F09FA07F826EA0806DFF805
:1008A000C880404503D14FF000081EE04FE0DFF85C
:1008B000BC80404502D14FF0010816E0DFF8B0805F
:1008C000404502D14FF002080FE0DFF8A880404514
:1008D00002D14FF0030808E0DFF89C80404502D1C8
:1008E0004FF0040801E04FF0070808FA07F848EA5B
:1008F0000608CCF80888DAF800605746D1F804C03A
:100900009E435FEACC3C00D51E433E60DBF80060AE
:100910005F46D1F804C09E435FEA8C3C00D51E437D
:100920003E60DEF800607746D1F804C09E435FEA7F
:10093000CC2C00D51E433E60084F0C373E68D1F8E2
:1009400004C09E435FEA8C2C00D51E433E60521CBF
:10095000102AFFF431AFBDE8F88F0000003C0140E1
:1009600044380240003001400000024000040240D0
:1009700000080240000C0240001002400AB18161F0
:1009800070470904FBE700000148806870470000D9
:100990000000002070B5040025D094F83D0000252B
:1009A00020B984F83C50204600F0B8F8242084F8A0
:1009B0003D002068016821F00101016020680168A4
:1009C00041F4004101602068016821F400410160A8
:1009D00000F000FA4D4A6168914201D84C4900E0AC
:1009E0004C49884201D2012070BD4B492368B0FBBD
:1009F000F1F15E6826F03F060E435E606368934245
:100A000006D94FF4967359434FF47A73B1FBF3F15F
:100A10002368491C1E6A26F03F063143196261684B
:100A2000914210D84900401EB0FBF1F2521CC2F3B3
:100A30000B02042A01D2042022E0B0FBF1F0401C9A
:100A4000C0F30B001CE0A268F2B301EBC10303EB9F
:100A50000116431EB3FBF6F35B1C43F480431B05F6
:100A600049D092B301EBC10202EB0111401EB0FB71
:100A7000F1F0401CC0F30B0040F4804040F4004013
:100A80002168CA694CF6FF739A431043C861D4E9E0
:100A9000071001432068026822F0C0021143016080
:100AA000D4E9030101432068826848F2FF339A4386
:100AB00011438160D4E9050108432168CA6822F026
:100AC000FF021043C86001E00EE016E020680168F4
:100AD00041F0010101602564202084F83D00256378
:100AE00084F83E50002070BD01EB4106431EB3FB6D
:100AF000F6F35B1CB3E70120C2E701EB4101401EA6
:100B0000B0FBF1F0401CC0F30B00B7E7A08601007A
:100B100080841E0000093D0040420F0010B586B0E1
:100B2000044614216846FFF71EFC144920688842D9
:100B300021D113480021026842F0020202600068DD
:100B400000F0020005904FF4107000901220CDE9E3
:100B50000101032003900420049069460948FFF72F
:100B60001DFE07481030016841F400110160006863
:100B700000F40010059006B010BD000000540040C5
:100B80003038024000040240024881680278114473
:100B900081607047000000200B4810B5016841F4E7
:100BA00000710160016841F480610160016841F4F5
:100BB00080710160032000F061F80F2000F006F85A
:100BC00000F024F8002010BD003C024070B50D4D2F
:100BD00004464FF47A712878B1FBF0F00A490968AD
:100BE000B1FBF0F000F004FE48B9102C07D200224F
:100BF0002146501E00F022F800206C6070BD0120DC
:100C000070BD0000000000200C0000200A4808B55C
:100C1000016841F480410160006800F48040009068
:100C20000548001F016841F080510160006800F034
:100C30008050009008BD000044380240F0B40E4BD4
:100C40001B680C46C3F30223C3F10705042D00D92A
:100C50000425191D072901D2002300E0DB1E01260F
:100C600006FA05F1491E214099409E40761E164025
:100C70003143F0BC01F02DBF0CED00E0064900F05F
:100C8000070208684FF6FF03184040EA0220034AB3
:100C900010430860704700000CED00E00000FA050A
:100CA0002DE9F0470E46050065D0DFF81481D8F82D
:100CB0000000F7B200F00700B04207D288F80070D9
:100CC000D8F8000000F00700B04254D128683D4C2D
:100CD000810712D5400703D5206840F4E05020601A
:100CE0002878000703D5206840F460402060206821
:100CF000A96820F0F000084320602878C0072DD0B4
:100D0000304968680839012812D0022813D0032816
:100D100011D00968890700292DDA216821F0030123
:100D200001432160FFF730FE814641F2883A0EE030
:100D300009688903EFE709688901ECE7FFF724FEFA
:100D4000A0EB0901514502D90320BDE8F0872068D6
:100D5000696800F00C00B0EB810FEFD1D8F80010FB
:100D6000404601F00701B14207D90770006800F062
:100D70000700B04201D00120E7E72878400705D5F9
:100D80002068E96820F4E0500843206028780007D4
:100D900006D52068296920F4604040EAC10020603F
:100DA00000F038F82168084AC1F30311515CC840CB
:100DB0000649086006480068FFF708FF0020C4E7FE
:100DC000003C024008380240622B00080C00002062
:100DD000040000200448054900680968044AC1F37A
:100DE0008221515CC84070470C0000200838024046
:100DF000722B00080448054900680968044AC1F3D9
:100E00004231515CC84070470C0000200838024055
:100E1000722B0008154810B5006810F00C02144839
:100E200013D01449042A0FD0082A0ED10F4C241FC6
:100E30002268236802F03F025B0207D52068C0F3F6
:100E40008810A0FB010106E0084610BD2168C1F32F
:100E50008811A1FB00010023FFF70EFA2168C1F3FE
:100E60000141491C4900B0FBF1F010BD08380240B7
:100E70000024F40040787D012DE9F84F04006ED085
:100E80002078DFF84C93C007A9F104054AD009F196
:100E900004000168C1F38101012908D00068C0F392
:100EA000810002280AD1D9F80000400206D528683E
:100EB000800337D560680028E1D033E06068B0F582
:100EC000803F10D0B0F5A02F286810D020F48030DB
:100ED0002860286820F4802028606068A8B1FFF7A7
:100EE00053FD06460DE0286840F48030F4E740F4F6
:100EF00080202860F7E700BFFFF746FD801B6428CD
:100F000073D828688003F7D50CE0FFF73DFD06464F
:100F100005E000BFFFF738FD801B6428F0D8286883
:100F20008003F7D42078DFF8AC8280074FF0000A06
:100F30003ED5A748001D016811F00C0F08D00068CD
:100F4000C0F3810002280BD1D9F80000400207D479
:100F50002868800716D5E068012800D112E033E147
:100F6000E068B8B10120C8F80000FFF70DFD0646A3
:100F700005E000BFFFF708FD801B0228C0D82868E5
:100F80008007F7D52868216920F0F80040EAC10001
:100F900028600DE0C8F800A0FFF7F6FC064604E064
:100FA000FFF7F2FC801B02281FD828688007F7D4BF
:100FB0002078000722D5864F87486169703771B164
:100FC00001210160FFF7E0FC064604E0FFF7DCFCCE
:100FD000801B022809D838688007F7D50EE0C0F8D2
:100FE00000A0FFF7D1FC064605E082E0FFF7CCFC4D
:100FF000801B02287DD838688007F7D42078400706
:1010000068D5DFF8CCB100270BF13C0BDBF8000012
:10101000C0000BD4DBF8001041F08051CBF8001079
:10102000DBF80000012700F0805000906B4E306824
:10103000C00510D4306840F480703060FFF7A4FC25
:10104000009005E0FFF7A0FC0099401A022850D854
:101050003068C005F6D55E4EA0686C3601280FD00A
:101060000528306810D020F001003060306820F092
:1010700004003060A068B8B1FFF786FC00900FE074
:10108000306840F00100F4E740F004003060F7E71A
:10109000FFF77AFC0099411A41F28830814266D804
:1010A00030688007F4D50EE0FFF76EFC009007E093
:1010B000FFF76AFC0099411A41F28830814256D804
:1010C00030688007F4D42FB1DBF8001021F0805194
:1010D000CBF80010A069C8B33D49091D0968C1F3E8
:1010E000810102294AD00228504607D0C8F8600082
:1010F00000E03CE0FFF748FC04463BE04746C8F808
:101100006000FFF741FC064605E000BFFFF73CFC2E
:10111000801B02282BD828688001F7D4D4E9070166
:101120000843A16A2E4A490802EB0141626A41EA7A
:101130008211084394F82C1040EA0161C9F80010AC
:1011400001203866FFF720FC044606E03EE000BFC1
:10115000FFF71AFC001B022809D828688001F7D580
:1011600034E000BFFFF710FC001B022802D9032067
:10117000BDE8F88F28688001F4D427E00128F7D073
:10118000D9F80000E26900F4800191421CD1226A82
:1011900000F03F01914217D147F6C071626A0140E9
:1011A000B1EB821F10D1A26A4FF0FF3300F440313F
:1011B00003EB5202B1EB024F06D194F82C1000F071
:1011C0007060B0EB016F01D00120D1E70020CFE7C4
:1011D0000438024000004742800E47420070004041
:1011E0000000FFFF2DE9FE430446002603200D46C4
:1011F00084F83400606C03285ED0B5F5805F5BD066
:101200004FF4006700204FF08068BD421FD1814637
:10121000009001900021206800F0C9FE800113D4E5
:101220006946204601F04EF907000DD101984003B0
:1012300034D5B4F850000104206800F0E8FE07003F
:1012400002D10221206823E0A06B384328E01DB1C1
:10125000A06B40F0006023E08146009001900021E7
:10126000206800F0A4FE8001EED46946204601F01B
:1012700029F90700E8D10198C0030FD5B4F8500050
:101280000104206800F0C3FE0700DDD100212068C2
:1012900000F009FF0700D7D14F46D5E74746D3E70F
:1012A000A063A06B144F4FF0010848B1206887631A
:1012B00084F8348001260EE0A06B40F08050EFE708
:1012C000211DD4E9050C0EC9CDE90050CDF808C0A8
:1012D000206800F06FFE4FF40071206800F0CAFE35
:1012E00028B121688F63A16B0143A163012684F8B3
:1012F00034803046BDE8FE83FF054000F0B5426E05
:10130000920F0A70426EC2F383624A70426EC2F359
:1013100001628A70426E120CCA70B0F86420120A20
:101320000A7190F864204A71826E120DCA80826E32
:10133000C2F303420A72B0F86820C2F3C0324A72A4
:10134000B0F86820C2F380328A72B0F86820C2F325
:101350004032CA72B0F86820C2F300320A73002625
:101360004E73426C4FF40075012462B1012A3AD0E9
:10137000026847499163816B41F08051816380F835
:1013800034400120F0BDB0F86820C36E9205120D04
:1013900042EA93720A61C26EC2F3C2620A75C26EF9
:1013A000C2F302624A75C26EC2F342528A75C26EBD
:1013B000C2F38242CA75C26EC2F3C2320A760A69A9
:1013C000521C42650B7E03F007039B1C9A4042654A
:1013D0000B7A03F00F0704FA07F383655B0A5A439D
:1013E000C0E917250EE090F86820C36E9206920AB5
:1013F00042EA13420A610A69521C92024265C0E93C
:101400001652056630F86C2FC2F3803201F8192F9E
:101410000288C2F3C6124A70027802F07F028A7014
:101420004268D20FCA704268C2F341720A714268C0
:10143000C2F382624A714268C2F383528A7142687F
:10144000C2F34052CA710E724268C2F300424A723D
:101450008288C2F3C0328A728288C2F38032CA7232
:101460008288C2F340320A738288C2F300324A7320
:101470008288C2F381228A738288C2F30122CA73EE
:101480000079C0F3460008744C740020F0BD0000E1
:10149000FF05400070B504000ED094F8340000251C
:1014A00018B92577204600F04BF8032084F8340063
:1014B000204600F00BF808B1012070BDA56325633C
:1014C000012084F83400002070BD0000FEB5002526
:1014D000044676200095CDE9015029460B460A4680
:1014E000206800F067FD28BB134E46F8A05F206817
:1014F00000F072FD01253560204601F0C7F828B1E3
:1015000084F83450A16B0143A16313E0204601F03D
:1015100046F80028F4D14FF40071206800F0AAFDCD
:10152000002808D0226805499163A16B0143A1639B
:1015300084F834500120FEBD00802542FF054000A4
:10154000F0B587B0044614216846FEF70CFF1D492C
:101550002068884234D11C480024016841F40061AD
:101560000160006800F400600590174814380168B5
:1015700041F001010160016801F00101059101687C
:1015800041F0020101600068022500F002000590B0
:101590004FF45070CDE9000502AA03260C2782E81B
:1015A000D00069460948FFF7F9F848F2A000CDE9F4
:1015B000000502AA694682E8D0000548FFF7EEF868
:1015C00007B0F0BD002C014044380240000002404A
:1015D0000004024070B5040009D0606A002540B1E3
:1015E00025616561A56294F8510040B10CE00120CD
:1015F00070BD6068B0F5827FF4D0E561F2E784F8F1
:101600005050204600F044F8022084F85100206831
:10161000016821F040010160A088218900F48270F6
:1016200001F404410843A18901F400610843217CCD
:1016300001F002010843217D01F001010843218BE3
:1016400001F400710843217F01F03801084394F848
:10165000201001F080010843218D01F4005108435E
:1016600021680860A069042101EA104094F8241060
:1016700001F010010843216848602068C16921F425
:101680000061C1616565012084F85100002070BDD2
:101690002DE9F04786B0044614216846FEF763FE44
:1016A0004E49DFF834C1236800254C4A143902241E
:1016B000032605204A4FDFF82CA1634525D1136886
:1016C00043F480531360126802F4805205920A6852
:1016D00042F001020A600A6802F0010205920A68FB
:1016E00042F002020A600968804601F00201059199
:1016F000A0218DE8720169463846FFF74FF81020A7
:101700008DE871016946504636E0DFF8DCC04FF0E5
:101710000608634535D1136843F40053136012681B
:1017200002F4005205920A6842F001020A600A6857
:1017300002F0010205920A6842F002020A6009689A
:10174000009401F00201CDE9040101AB694683E890
:101750007000B9463846FFF721F84FF4005047466D
:101760008DE8F10069465046FFF718F84FF4006025
:101770008DE8F10069464846FFF710F806B0BDE86D
:10178000F0871A488342F9D1106840F48010106045
:10179000106800F480100590086840F002000860AE
:1017A000086800F002000590086840F00100086039
:1017B0000868694600F00100059040F201108DE8CC
:1017C00071015046FEF7EAFF4FF480508DE8710139
:1017D00069463846D0E700000030014044380240F6
:1017E000000002400004024000340140005001406B
:1017F00010B5401EB0F1807F01D3012010BD4FF025
:10180000E02460610F21601701F063F90020A061FE
:1018100007202061002010BD70B590F83C20012AFF
:101820002CD0012480F83C40022280F83D2003683F
:101830005A689D6822F070060A6832435A60104B5D
:1018400002689A420ED0B2F1804F0BD00D4B9A42F3
:1018500008D00D4B9A4205D00C4B9A4202D00C4B4B
:101860009A4204D1496825F080031943916080F8B9
:101870003D40002180F83C10084670BD022070BD3C
:10188000000001400004004000080040000C00403F
:1018900000400140F0B587B0044614216846FEF7C9
:1018A00062FD2068002420490225204EB0F1804FBF
:1018B00016D01F4A904211D1086840F0020008601B
:1018C00008680095CDE9015400F00200CDE904500C
:1018D000694603944FEA0600FEF760FF07B0F0BDCB
:1018E000086840F001000860086800F001000590F9
:1018F000086840F002000860086801270097CDE9F9
:10190000015400F00200CDE90470694603940948CF
:10191000FEF744FF08200090CDE90154CDE90347CC
:1019200069463046D8E700003038024000040240E3
:10193000000400400000024070B5044690F83C00EE
:1019400000260D4601280FD0012084F83C006AB122
:10195000042A1DD0082A2FD00C2A3FD001260020AF
:1019600084F83C00304670BD022070BD206800F055
:1019700087FF2068816941F00801816120688169E1
:1019800021F004018161206881692A69114311E015
:10199000206800F09DFF2068816941F40061816149
:1019A0002068816921F480618161206881692A69E8
:1019B00041EA02218161D2E7206800F0B5FF20688A
:1019C000C16941F00801C1612068C16921F00401C9
:1019D000C1612068C1692A69114311E0206800F0E3
:1019E000CFFF2068C16941F40061C1612068C1690D
:1019F00021F48061C1612068C1692A6941EA02213C
:101A0000C161ACE710B5040003D094F83D0010B1FB
:101A100007E0012010BD002084F83C00204600F0C3
:101A20001FF8022084F83D00211D206800F0DCFE34
:101A3000012084F8460084F83E0084F83F0084F8D2
:101A4000400084F8410084F8420084F8430084F8A0
:101A5000440084F8450084F83D00002010BD0000DB
:101A600008B501680B48B1F1804F0BD00A4A91428A
:101A700007D1016841F002010160006800F0020036
:101A8000009008BD016841F001010160006800F0AC
:101A90000100F5E7403802400004004070B5040042
:101AA00004D094F83D00002510B106E0012070BD7F
:101AB00084F83C50204600F023F8242084F83D00B0
:101AC0002068C16821F40051C160204600F07AFF0F
:101AD0002068016921F4904101612068416921F089
:101AE0002A0141612068C16841F40051C160256448
:101AF000202084F83D0084F83E00002070BD0000E6
:101B0000F0B587B0044614216846FEF72CFC1F4F41
:101B1000236800221E490224032507261D48BB42D4
:101B200014D11B4B14331F6847F010071F601B684C
:101B300003F0100305930B6843F001030B60096881
:101B400001F0010105914FF4044115E0124FBB4231
:101B50001AD10F4B10331F6847F400371F601B6802
:101B600003F4003305930B6843F001030B6009682D
:101B700001F0010105910C21CDE9001402AB694689
:101B800083E86400FEF70AFE07B0F0BD00100140D4
:101B9000303802400000024000440040FEE70000F0
:101BA0007FB50024154800940194029412490394CF
:101BB00001604FF48031C0E901140461047680F8BB
:101BC00020400F49C0E90A140125C561C46080F8AE
:101BD00030404561FEF776FD08B1FEF7BFFC0420FA
:101BE000CDE90005694602940448FEF7B9FC0028D7
:101BF00001D0FEF7B3FC7FBD0020014010000020A3
:101C00000100000F2DE9F04387B014216846FEF76C
:101C1000AAFB2D480024016841F00401016001681D
:101C200001F004010591016841F080010160016843
:101C300001F080010591016841F001010160016836
:101C400001F001010591016841F0020101600068A5
:101C5000DFF8788000F002004FF4C04505900022C4
:101C600029464046FEF78AFEDFF864904FF4A84705
:101C7000002239464846FEF781FE00950125CDE950
:101C80000154694640460394FEF788FDE8034FF48B
:101C90008816CDE90006694602944046FEF77EFDAF
:101CA0000420CDE90006694602944846FEF776FD19
:101CB0000097CDE90154694648460394FEF76EFD4E
:101CC00007B0BDE8F0830000303802400008024051
:101CD000000402400D4810B50B4901600C494160F9
:101CE00000214FF480428160C0E9031241618161AB
:101CF000C1610162FEF74EFE002803D0BDE810402E
:101D0000FEF72CBC10BD000000540040580000201D
:101D1000A08601000E4810B50C4901600021416009
:101D20008160C160016141618161FFF7B3FB08B16E
:101D3000FEF714FC4FF400610548FFF753FA002842
:101D400003D0BDE81040FEF709BC10BD002C0140D7
:101D5000AC0000200F4810B50D4901604FF48271AE
:101D6000416000218160C1604FF400720161C0E9EF
:101D70000512C1610162416281620A21C162FFF7FD
:101D800029FC002803D0BDE81040FEF7E7BB10BDDA
:101D900000300140300100200F4810B50D490160AE
:101DA0004FF48271416000218160C1604FF4007284
:101DB0000161C0E90512C1610162416281620A21CB
:101DC000C162FFF707FC002803D0BDE81040FEF712
:101DD000C5BB10BD00340140880100200F4810B57C
:101DE0000D4901604FF48271416000218160C16042
:101DF0004FF400720161C0E90512C16101624162E4
:101E000081620A21C162FFF7E5FB002803D0BDE82B
:101E10001040FEF7A3BB10BD00500140E0010020C0
:101E200010B58AB0002407941C2168460894FEF778
:101E30009AFA19484FF08041C0E90014611EC0E9C8
:101E4000024104618461FFF7DDFD08B1FEF786FB06
:101E5000079407A910480894FFF7DEFC08B1FEF7C5
:101E60007DFB6020CDE900040294002269460A4807
:101E70000494FFF761FD08B1FEF770FB0422694688
:101E80000548FFF759FD08B1FEF768FB0248FFF768
:101E900001FD0AB010BD00003802002010B58AB064
:101EA000002407941C2168460894FEF75CFA164843
:101EB0001449C0E900144FF6FF71C0E90241046102
:101EC0008461FFF79FFD08B1FEF748FB079407A95F
:101ED0000D480894FFF7A0FC08B1FEF73FFB602017
:101EE000CDE9000402940C22694607480494FFF7E8
:101EF00023FD08B1FEF732FB0348FFF7CBFC0AB025
:101F000010BD000000040040800200200C4810B505
:101F10000A4901604FF4E1314160002181600C22E7
:101F2000C160C0E904128161C161FFF7B7FD0028FB
:101F300003D0BDE81040FEF711BB10BD00100140FA
:101F4000C80200200C4810B50A4901604FF4E13185
:101F50004160002181600C22C160C0E904128161EE
:101F6000C161FFF79BFD002803D0BDE81040FEF7DC
:101F7000F5BA10BD004400400C030020FEE7FEE768
:101F800070470A6842624A688262D1E902231A43B2
:101F9000D1E904310B43C16A1A4321F0F70111431F
:101FA000C16200207047006800F0030070470844D9
:101FB0004069704770B50DF1100C11439CE870003A
:101FC0002343194329434268314347F6FF639A4349
:101FD0000A434260002070BD10B503210160022059
:101FE000FEF7CAFB002010BDD0F8800070470A68D9
:101FF0008260D1E901231A43D1E903310B43C1685F
:102000001A436FF30B011143C1600020704710B5F4
:1020100086B004463720CDE9001040200290002011
:1020200003904FF48060049069462046FFF7DFFF7D
:1020300041F288323721204600F026F906B010BD63
:1020400010B504460A4886B001432920CDE90010A6
:1020500040200290002003904FF480600490694675
:102060002046FFF7C4FF204600F0C6F906B010BDB9
:102070000000108010B586B004461020CDE9001095
:1020800040200290002003904FF480600490694645
:102090002046FFF7ACFF41F288321021204600F0C5
:1020A000F3F806B010BD10B586B004460620CDE9A1
:1020B000001040200290002003904FF480600490B4
:1020C00069462046FFF793FF41F2883206212046F9
:1020D00000F0DAF806B010BD30B585B00024054632
:1020E000009401944FF480600294CDE90340694666
:1020F0002846FFF77CFF0B484FF4FA510068B0FB0D
:10210000F1F041F288314843401E03D24FF00040C5
:1021100005B030BD696B0906F6D5C520A863204619
:10212000F6E700000C00002070B585B004464FF4BF
:10213000D570009001A908204025002681E86100A3
:10214000C001049069462046FFF751FF12484FF442
:10215000FA510068B0FBF1F041F288314843401E6B
:1021600003D24FF0004005B070BD616B11F0450F18
:10217000F5D00905F3D4606B400701D5042003E0D6
:10218000606BC00702D00120A063ECE7606B4006E3
:1021900000D5A5633046E6E70C00002010B586B0F8
:1021A00004460720CDE90020402002900020039043
:1021B0004FF48060049069462046FFF718FF41F213
:1021C00088320721204600F05FF806B010BD10B538
:1021D00086B0044600210220CDE90010C020CDE9E0
:1021E00002014FF48060049069462046FFF7FFFE2D
:1021F000204600F0D9F806B010BD10B586B00446F0
:102200000920CDE90010C0200290002003904FF477
:102210008060049069462046FFF7E9FE204600F002
:10222000C3F806B010BD10B586B0044600213320B7
:10223000CDE900104020CDE902010001049069467B
:102240002046FFF7D4FE41F288323321204600F0C9
:102250001BF806B010BD30B585B00C460546002110
:102260000320CDE900104020CDE9020100010490D7
:1022700069462846FFF7BBFE22460321284600F0A8
:10228000DDF805B030BD0000454B10B51B684FF4BC
:10229000FA54B3FBF4F353435B1E02D24FF00040F9
:1022A00010BD426B12F0450FF6D01205F4D4426B0C
:1022B000520703D504218163084610BD426BD20743
:1022C00002D00121816305E0C52282630269D2B296
:1022D0008A4201D0012010BD0021FFF768FE31497C
:1022E000084201D1002010BD002802DA4FF0007032
:1022F00010BD410001D5402010BD810001D58020D6
:1023000010BDC10002D54FF4807010BD010102D58F
:102310004FF4007010BD410102D54FF4806010BD34
:10232000C10102D54FF4006010BD010202D54FF487
:10233000805010BD410202D54FF4005010BD810203
:1023400002D54FF4804010BDC10202D54FF40040C9
:1023500010BD410302D54FF4003010BD810302D5FA
:102360004FF4802010BDC10302D54FF4002010BDF2
:10237000010402D54FF4801010BD410402D54FF482
:10238000001010BD810402D54FF4800010BD00077D
:1023900002D54FF4000010BD4FF4803010BD000096
:1023A0000C00002008E0FFFD12494FF4FA520968C2
:1023B000B1FBF2F141F288325143491E02D24FF093
:1023C00000407047426B12F0450FF6D01205F4D46E
:1023D000416B490703D50421816308467047416B6F
:1023E000C90703D00121816308467047C521816375
:1023F000002070470C0000200F494FF4FA52096882
:10240000B1FBF2F141F288325143491E02D24FF042
:1024100000407047426B12F0450FF6D01205F4D41D
:10242000416B490703D50421816308467047C521E4
:1024300081630020704700000C00002030B5204B65
:102440004FF4FA541B68B3FBF4F341F2883463434E
:102450005B1E02D24FF0004030BD446B14F0450FBC
:10246000F6D02405F4D4436B5B0703D504218163C4
:10247000084630BD436BDB0702D00121816303E0D6
:102480000369DBB28B4201D0012030BDC5218163DD
:102490000021FFF78CFD10F4604F04D0410406D5F5
:1024A0004FF4005030BD000C1080002030BD0004FF
:1024B00002D54FF4805030BD4FF4803030BD000065
:1024C0000C0000202DE9F04788B00D460446FEF7C9
:1024D0005BFA00268246009601963746082120685E
:1024E000FFF7C8FD002829D1B4F850000104206886
:1024F000FFF78DFD002821D1401E4FF00808CDE9DF
:10250000020830204FF00209CDE904090120CDE98D
:10251000067002A92068FFF734FD2068FFF783FEEC
:1025200000280BD16F462068416B11F02A0F08D0AC
:10253000416B09071AD5C0F83880082008B0BDE8FB
:10254000F087416B890205D5FFF74EFD47F826005D
:10255000761C02E0416B8904EAD5FEF715FAA0EB80
:102560000A00401CDFD14FF00040E7E7416B8907CC
:1025700003D5C0F838900220E0E7416B890603D507
:10258000202181630846D9E740F23A5181630198DE
:1025900000BA2860009800BA68600020CEE710B545
:1025A00090B004460120ADF838002068FFF7FBFC2E
:1025B000002854D0606C032842D02068FFF707FE43
:1025C00000284AD100212068FFF7F1FC6067042150
:1025D0002068FFF7ECFCA06708212068FFF7E7FC04
:1025E000E0670C212068FFF7E2FCC4F88000606C13
:1025F000032825D00EA92068FFF72DFE00282CD136
:10260000606C03281CD0BDF83800206501042068E8
:10261000FFF7F3FD002820D100212068FFF7C7FC59
:10262000606604212068FFF7C2FCA06608212068CC
:10263000FFF7BDFCE0660C212068FFF7B8FC2067BF
:1026400004212068FFF7B3FC000DE06403A92046D5
:10265000FEF754FE30B14FF0805010B010BD4FF077
:102660008060FAE7B4F85000002302042068FFF706
:1026700095FD0028F1D104F1100007C88DE807008E
:1026800094E80F00FFF796FC0020E6E72DE9F84FED
:102690000026044600963546B0460068FFF71CFD4C
:1026A000002827D12068FFF73FFD4FF0805B4FF0F7
:1026B00001094FF6FF7748B1A6642068FFF70CFDCB
:1026C000002817D1A06C012802D020E0C4F848905F
:1026D00000212068FFF79BFC58B918E00021206812
:1026E000FFF795FC002805D151462068FFF7A8FCAC
:1026F00010B15846BDE8F88F00212068FFF757FC5D
:1027000005464FEAD0780098401C009002E0DFF8C0
:102710002CA00098B84202D2B8F1000FDED0009889
:10272000B84202D34FF08070E4E7680002D5C4F8E5
:10273000449000E066640020DCE70000000010C167
:102740007047FEF721BA000030B593B030216846DB
:10275000FDF709FE14210CA8FDF705FE1C48002515
:10276000016841F080510160006800F080501190D4
:102770001848016841F4404101600068022400F4F7
:102780004040119001200090000401908001CDE9AB
:1027900006400C2008906020CDE9090405200B902C
:1027A0006846FEF769FB08B172B6FEE70CA90F2078
:1027B00081E831004FF48050CDE90F0503210CA8CA
:1027C000FEF76EFA002801D072B6FEE713B030BDF6
:1027D00040380240007000400248016841F4700136
:1027E0000160704788ED00E0F0B502681D4B1E4C9B
:1027F0009F031E4D1E4E984207D0B84205D0A042FE
:1028000003D0A84201D0B04204D122F0700C4A6833
:1028100042EA0C02984210D0B8420ED0A0420CD02E
:10282000A8420AD0B04208D0124CA04205D0124CA7
:10283000A04202D0114CA04203D122F44074CA68D5
:1028400022434C6922F08002224302608A68C262FD
:102850000A688262984201D10969016301214161DC
:10286000F0BD0000000001400004004000080040EE
:10287000000C00400040014000440140004801407D
:1028800030B5026A22F001020262026A436884697A
:1028900024F073050C682C4322F002058A682A4351
:1028A0000A4DA8420BD122F00805CA6823F44073F0
:1028B0002A434D6922F004021D438B692B43436078
:1028C000846149684163026230BD0000000001403C
:1028D00030B5026A22F010020262026A436884691B
:1028E0000D6824F4E64444EA05248D6822F02002B1
:1028F00042EA05120B4DA8420ED1CD6822F08002AB
:1029000042EA05124D6923F4406343EA85038D6969
:1029100022F0400243EA8503436084614968816391
:10292000026230BD0000014030B5026A22F48072BC
:102930000262036A4268C46923F4007324F07305D9
:102940000C682C438D6843EA05230C4DA8420ED138
:10295000CD6823F4006343EA05234D6922F4405215
:1029600042EA05128D6923F4806342EA051242604F
:10297000C4614968C163036230BD000000000140CA
:1029800030B5026A22F480520262046A4268C36966
:102990000D6823F4E64343EA05238D6824F40054CC
:1029A00044EA0534064DA84204D14D6922F4804220
:1029B00042EA85124260C36149680164046230BD25
:1029C0000000014070B5044600680169E26821F426
:1029D0004051114301612169A068E26908436169BE
:1029E000114308432168CA6849F20C639A430243C1
:1029F000CA6020684169A26921F4407111434161B4
:102A000031492068884202D03049884202D1FEF71D
:102A1000F1F901E0FEF7DEF9E269002319216425EE
:102A20003226B2F5004F626828D0A0FB0101930F57
:102A30009200FDF721FC0146B0FBF5F06FF01802A3
:102A4000504301EB800006EB0010B0FBF5F000F006
:102A5000F002B1FBF5F002EB0012B1FBF5F06FF004
:102A60001803584301EB800006EB0010B0FBF5F0B3
:102A700000F00F0021681044886070BDA0FB0101C8
:102A800092185B41FDF7F8FB0146B0FBF5F002013F
:102A9000B1FBF5F06FF01803584301EB800006EB33
:102AA000C000B0FBF5F000F0F80002EB4002B1FB13
:102AB000F5F0584301EB800006EBC000B0FBF5F0E9
:102AC00000F00700D6E700000010014000140140AC
:102AD000FEE70907090E002804DB00F1E02080F87A
:102AE0000014704700F00F0000F1E02080F8141D82
:102AF00070470000FEF750F8FFF726FEFFF782F858
:102B0000FFF7E8F8FFF706F9FFF724F9FFF744F9B4
:102B1000FFF764F9FFF784F9FFF7C0F9FFF7F6F95B
:102B2000FFF710FAFFF73CF80A4C4FF400564FF449
:102B3000FA65012231462046FDF720FF2846FDF7C1
:102B40001BFE002231462046FDF718FF2846FDF700
:102B500013FEEEE7000802404FF04070E1EE100A6D
:102B60007047000000000000000001020304060797
:102B70000809000000000102030400009C2B00086B
:102B80000000002010000000D4010008AC2B000859
:102B900010000020A0090000F00100080100000062
:0C2BA00010000000000000000024F40001
:040000050800019955
:00000001FF
