:020000040800F2
:10000000480A00203902000833260008EF1F0008C4
:1000100031260008450600080933000800000000EA
:10002000000000000000000000000000052F000894
:10003000470600080000000035260008072F0008CA
:10004000530200085302000853020008530200083C
:10005000530200085302000853020008530200082C
:10006000530200085302000853020008530200081C
:10007000530200085302000853020008530200080C
:100080005302000853020008530200080000000059
:100090000000000000000000000000005302000803
:1000A00053020008530200085302000853020008DC
:1000B00053020008530200085302000853020008CC
:1000C00053020008530200085302000853020008BC
:1000D0005302000853020008530200080000000009
:1000E00053020008530200085302000800000000F9
:1000F00000000000000000000000000053020008A3
:1001000000000000530200085302000853020008D8
:1001100000000000000000000000000000000000DF
:10012000530200085302000853020008530200085B
:100130005302000800000000000000000000000062
:100140000000000000000000000000005302000852
:10015000530200085302000853020008530200082B
:1001600053020008530200080000000000000000D5
:10017000000000000000000000000000000000007F
:100180000000000053020008000000000000000012
:10019000530200085302000800F002F800F03CF897
:1001A0000AA090E8000C82448344AAF10107DA45D2
:1001B00001D100F031F8AFF2090EBAE80F0013F0E8
:1001C000010F18BFFB1A43F001031847D832000093
:1001D000F8320000103A24BF78C878C1FAD8520724
:1001E00024BF30C830C144BF04680C6070470000B1
:1001F0000023002400250026103A28BF78C1FBD830
:10020000520728BF30C148BF0B6070471FB503F0CD
:1002100037F91FBD10B510BD00F04AF91146FFF7C0
:10022000F5FF03F083F800F068F903B4FFF7F2FF7D
:1002300003BC00F06BF900000948804709480047FB
:10024000FEE7FEE7FEE7FEE7FEE7FEE7FEE7FEE786
:10025000FEE7FEE704480549054A064B70470000E3
:10026000992F00089901000848040020480A00203E
:10027000480600204806002053EA020C00F069807E
:100280002DE9F04B4FF00006002B1FBFB3FA83F5AA
:1002900003FA05F424FA05F65E4012BF1643B2FADB
:1002A00082F502FA05F4C5F120051EBF22FA05FC0D
:1002B00044EA0C04203556EA044C4FEA144418BFB3
:1002C000641C4FF000084FF00009904271EB030CE2
:1002D00039D3002919BFB1FA81F701FA07F6B0FA4C
:1002E00080F700FA07F6C7F120071EBF20FA07FCC7
:1002F00046EA0C062037B6FBF4FCA7EB0507103FD7
:1003000007F01F0BCBF120060CFA0BFB2CFA06F6BC
:1003100044BFB3460026202FA4BF5E464FF0000B1B
:100320005BEA060C08BF4FF0010B19EB0B09ABFBA6
:10033000027C48EB0608C01B06FB02CC0BFB03CC7F
:1003400071EB0C01C1E70B46024641464846BDE849
:10035000F08B13B54FF000004FF00001AFF30080B9
:10036000BDE81C407047032A40F2308010F0030CB7
:1003700000F0158011F8013BBCF1020F624498BFF8
:1003800011F801CB00F8013B38BF11F8013BA2F195
:10039000040298BF00F801CB38BF00F8013B11F010
:1003A000030300F04F80083AC0F0088051F8043B86
:1003B000083A51F804CBA0E80810F5E7121D5CBF1D
:1003C00051F8043B40F8043BAFF30080D20724BF50
:1003D00011F8013B11F801CB48BF11F8012B24BFE4
:1003E00000F8013B00F801CB48BF00F8012B704733
:1003F0004FF0000200B5134694469646203922BFBE
:10040000A0E80C50A0E80C50B1F12001BFF4F7AF08
:10041000090728BFA0E80C5048BF0CC05DF804EBEA
:10042000890028BF40F8042B08BF704748BF20F858
:10043000022B11F0804F18BF00F8012B7047704756
:100440007047704710B5203AC0F00B80B1E81850E3
:10045000203AA0E81850B1E81850A0E81850BFF4AE
:10046000F5AF5FEA027C24BFB1E81850A0E818504D
:1004700044BF18C918C0BDE810405FEA827C24BFA1
:1004800051F8043B40F8043B08BF7047D20728BF2F
:1004900031F8023B48BF11F8012B28BF20F8023B7E
:1004A00048BF00F8012B704700487047E403002064
:1004B0007546FFF7F9FFAE4605006946534620F042
:1004C0000700854618B020B5FFF7C4FEBDE8204000
:1004D0004FF000064FF000074FF000084FF0000B00
:1004E00021F00701AC46ACE8C009ACE8C009ACE8B3
:1004F000C009ACE8C0098D46704710B50446AFF39B
:1005000000802046BDE81040FFF78FBE014918204B
:10051000ABBEFEE72600020070470000464910B55A
:100520004A6822F440324A604A6843681A434A6083
:1005300001684A6822F480724A6001684A68036967
:1005400042EA03224A6001684A6822F040724A6027
:1005500001684A6883681A434A6001688A6822F41D
:1005600000628A6001688A68C3681A438A60816A87
:100570006FF07062D14201688A6822F070628A600E
:1005800001688A680CD0836A1A438A6001688A68A5
:1005900022F040528A6001688A68C36A1A4301E007
:1005A00022F040528A6001688A6822F002028A6062
:1005B00001688A68037E42EA43028A6090F820104C
:1005C000002901684A680FD042F400624A6001685D
:1005D0004A6822F460424A6001684A68174C436ADC
:1005E00004EB43331A4301E022F400624A600168DD
:1005F000CA6A22F47002CA620168CA6A838B104C0C
:1006000004EB03531A43CA6201688A6822F4007239
:100610008A6001688A6890F8303042EA43228A6032
:1006200001688A6822F480628A6001688A68406989
:1006300042EA8020886010BD0023014000E0FFFFF7
:100640000000F0FFFEE7704772B64FF47A7464233F
:1006500027220449044801F071FC204600F012F9F9
:10066000F5E7000002000020A003002078B5002478
:10067000009490F83C20012A19D0012280F83C20F7
:100680000A6807230568092A13D9EE680A3A02EBBB
:10069000420293409E43EE600B788A680A3B03EB6C
:1006A00043039A400368DD682A43DA6010E00220C1
:1006B00078BD2E6902EB420293409E432E610B7877
:1006C0008A6803EB43039A4003681D692A431A6151
:1006D0004A681F23072A13D205686E6B521E02EB6D
:1006E000820293409E436E630A8893B20A79521E37
:1006F00002EB820293400268556B2B43536327E061
:1007000005680D2A12D22E6BD21F02EB8202934093
:100710009E432E630B790A88DB1F92B203EB83039F
:100720009A4003681D6B2A431A6311E0EE6A0D3A82
:1007300002EB820293409E43EE620B790A880D3BE6
:1007400092B203EB83039A400368DD6A2A43DA62BC
:100750001B4B0568194A9D420AD10D68122D07D11D
:10076000556825F400055560556845F480055560C9
:1007700005689D421DD1134D0B68AB4201D0112B72
:1007800017D1536823F480035360536843F4000384
:1007900053600968A9420CD10B490C4A0968B1FBA6
:1007A000F2F101EB8101490000E0491E00910029AE
:1007B000FBD180F83C40002078BD000000230140C0
:1007C00000200140120000103800002040420F00BD
:1007D00070B504004FF0000503D0206C002610B166
:1007E00007E0012070BD204600F01CF8666484F824
:1007F0003C60206CC00610D4206C20F4885040F07F
:10080000020020642046FFF789FE6664206C20F019
:10081000020040F00100206400E0012584F83C6003
:10082000284670BD10B586B0044614216846FFF70F
:10083000DFFD1149206888421CD110480021026860
:1008400042F480720260006800F4807005900B48EA
:100850001438026842F001020260006800F00100F2
:100860000590102000900320CDE90101694604485D
:1008700000F01AF806B010BD0020014044380240D4
:100880000000024070B5044600F004F90546601C03
:1008900002D004480078044400F0FCF8401BA04259
:1008A000FAD370BD2C0000202DE9F84FDFF8B8A175
:1008B000002201240AF1040B03254FF00F090BF16C
:1008C000040E00BF0B6804FA02F63340B34273D142
:1008D0000F7907F00307012F01D0022F16D1876887
:1008E0004FEA420805FA08FC27EA0C07D1F80CC0C9
:1008F0000CFA08FC4CEA070CC0F808C04768B7437C
:100900000E79C6F3001696403E4346600E79F643D4
:10091000B6070DD0C768560005FA06FC27EA0C0793
:10092000D1F808C00CFA06FC4CEA070CC0F80CC061
:100930000E7906F00306022E10D1D60800EB8608C9
:10094000D8F8206057074FEAD76C09FA0CF7BE4376
:100950000F6907FA0CF73743C8F8207006684FEAAA
:10096000420C05FA0CF7BE430F7907F0030707FAAC
:100970000CF7374307604E6816F4403F6DD03B4E8E
:10098000376847F480473760366822F0030706F47B
:1009900080460096364E07EB060CDCF80868970791
:1009A0003F0F09FA07F826EA0806DFF8C880404535
:1009B00003D14FF000081EE04FE0DFF8BC80404557
:1009C00002D14FF0010816E0DFF8B080404502D1B7
:1009D0004FF002080FE0DFF8A880404502D14FF049
:1009E000030808E0DFF89C80404502D14FF004087E
:1009F00001E04FF0070808FA07F848EA0608CCF8C3
:100A00000888DAF800605746D1F804C09E435FEAD0
:100A1000CC3C00D51E433E60DBF800605F46D1F859
:100A200004C09E435FEA8C3C00D51E433E60DEF866
:100A300000607746D1F804C09E435FEACC2C00D515
:100A40001E433E60084F0C373E68D1F804C09E43F9
:100A50005FEA8C2C00D51E433E60521C102AFFF426
:100A600031AFBDE8F88F0000003C0140443802403F
:100A70000030014000000240000402400008024033
:100A8000000C0240001002400AB181617047090465
:100A9000FBE7000001488068704700002C00002040
:100AA00070B5040025D094F83D00002520B984F8E5
:100AB0003C50204600F04EF9242084F83D00206888
:100AC000016821F0010101602068016841F40041E2
:100AD00001602068016821F40041016000F096FA8D
:100AE0004D4A6168914201D84C4900E04C49884226
:100AF00001D2012070BD4B492368B0FBF1F15E6863
:100B000026F03F060E435E606368934206D94FF4B9
:100B1000967359434FF47A73B1FBF3F12368491C80
:100B20001E6A26F03F06314319626168914210D86F
:100B30004900401EB0FBF1F2521CC2F30B02042A22
:100B400001D2042022E0B0FBF1F0401CC0F30B0006
:100B50001CE0A268F2B301EBC10303EB0116431ED4
:100B6000B3FBF6F35B1C43F480431B0549D092B3FF
:100B700001EBC10202EB0111401EB0FBF1F0401C81
:100B8000C0F30B0040F4804040F400402168CA6983
:100B90004CF6FF739A431043C861D4E90710014330
:100BA0002068026822F0C00211430160D4E9030109
:100BB00001432068826848F2FF339A431143816001
:100BC000D4E9050108432168CA6822F0FF021043F6
:100BD000C86001E00EE016E02068016841F0010104
:100BE00001602564202084F83D00256384F83E5090
:100BF000002070BD01EB4106431EB3FBF6F35B1C06
:100C0000B3E70120C2E701EB4101401EB0FBF1F068
:100C1000401CC0F30B00B7E7A086010080841E00D3
:100C200000093D0040420F002DE9F84F1F46904655
:100C30008A460446DDF82890FFF72CFF054694F815
:100C40003D0020287FD119230122404920460095EC
:100C500001F05AFA002876D194F83C00012872D0AD
:100C6000012084F83C0020680168C90703D10168AD
:100C700041F0010101602068016821F40061016018
:100C8000212084F83D00102084F83E0000262664D0
:100C9000C4F824806785608D20852D48E0622B464E
:100CA0004A465146204601F0BBF990B92068416997
:100CB0008069009036E02A464946204601F0A3FAB2
:100CC00050B1206C042804D12068016841F40071FF
:100CD00001600120BDE8F88F606A21680078086132
:100CE000606A401C6062618D491E6185218D491ECC
:100CF00089B2218522685369DB435B070BD451B16C
:100D000000781061606A401C6062608D401E6085E2
:100D1000208D401E20852A464946204601F0CEF906
:100D20000028CED1208D0028C5D154F83D0B016894
:100D300041F400710160202004F81E09E67766770F
:100D40000020C7E7FFE70220C4E700000200100010
:100D50000000FFFF10B586B0044614216846FFF777
:100D600047FB14492068884221D1134800210268BA
:100D700042F002020260006800F0020005904FF4A9
:100D8000107000901220CDE901010320039004208F
:100D9000049069460948FFF787FD0748103001684D
:100DA00041F400110160006800F40010059006B0E5
:100DB00010BD0000005400403038024000040240E2
:100DC0000248816802781144816070472C0000203D
:100DD0000B4810B5016841F400710160016841F4ED
:100DE00080610160016841F480710160032000F0BE
:100DF00061F80F2000F006F800F024F8002010BD84
:100E0000003C024070B50D4D04464FF47A712878CD
:100E1000B1FBF0F00A490968B1FBF0F000F0B7FE51
:100E200048B9102C07D200222146501E00F022F8AB
:100E300000206C6070BD012070BD00002C000020FF
:100E4000380000200A4808B5016841F4804101607B
:100E5000006800F4804000900548001F016841F0E0
:100E600080510160006800F08050009008BD0000D3
:100E700044380240F0B40E4B1B680C46C3F3022307
:100E8000C3F10705042D00D90425191D072901D236
:100E9000002300E0DB1E012606FA05F1491E214071
:100EA00099409E40761E16403143F0BC02F02DBAA8
:100EB0000CED00E0064900F0070208684FF6FF035A
:100EC000184040EA0220034A1043086070470000BF
:100ED0000CED00E00000FA052DE9F0470E46050094
:100EE00065D0DFF81481D8F80000F7B200F00700F1
:100EF000B04207D288F80070D8F8000000F0070070
:100F0000B04254D128683D4C810712D5400703D523
:100F1000206840F4E05020602878000703D520685E
:100F200040F4604020602068A96820F0F000084389
:100F300020602878C0072DD030496868083901281A
:100F400012D0022813D0032811D00968890700297C
:100F50002DDA216821F0030101432160FFF79AFD9A
:100F6000814641F2883A0EE009688903EFE7096893
:100F70008901ECE7FFF78EFDA0EB0901514502D98D
:100F80000320BDE8F0872068696800F00C00B0EB32
:100F9000810FEFD1D8F80010404601F00701B142AF
:100FA00007D90770006800F00700B04201D00120A7
:100FB000E7E72878400705D52068E96820F4E05085
:100FC000084320602878000706D52068296920F4A6
:100FD000604040EAC100206000F038F82168084A0B
:100FE000C1F30311515CC840064908600648006817
:100FF000FFF708FF0020C4E7003C02400838024029
:101000008A340008380000203000002004480549D8
:1010100000680968044AC1F38221515CC8407047E6
:1010200038000020083802409A3400080448054976
:1010300000680968044AC1F34231515CC8407047F6
:1010400038000020083802409A340008154810B5CE
:10105000006810F00C02144813D01449042A0FD071
:10106000082A0ED10F4C241F2268236802F03F0289
:101070005B0207D52068C0F38810A0FB010106E0E1
:10108000084610BD2168C1F38811A1FB00010023AF
:10109000FFF7F2F82168C1F30141491C4900B0FB98
:1010A000F1F010BD083802400024F40040787D01C2
:1010B0002DE9F84F04006ED02078DFF84C93C0077C
:1010C000A9F104054AD009F104000168C1F38101C6
:1010D000012908D00068C0F3810002280AD1D9F89C
:1010E0000000400206D52868800337D560680028D4
:1010F000E1D033E06068B0F5803F10D0B0F5A02FAC
:10110000286810D020F480302860286820F48020DF
:1011100028606068A8B1FFF7BDFC06460DE02868AE
:1011200040F48030F4E740F480202860F7E700BF07
:10113000FFF7B0FC801B642873D828688003F7D5BC
:101140000CE0FFF7A7FC064605E000BFFFF7A2FC96
:10115000801B6428F0D828688003F7D42078DFF853
:10116000AC8280074FF0000A3ED5A748001D0168F9
:1011700011F00C0F08D00068C0F3810002280BD1D9
:10118000D9F80000400207D42868800716D5E06827
:10119000012800D112E033E1E068B8B10120C8F8BD
:1011A0000000FFF777FC064605E000BFFFF772FC82
:1011B000801B0228C0D828688007F7D528682169D5
:1011C00020F0F80040EAC10028600DE0C8F800A057
:1011D000FFF760FC064604E0FFF75CFC801B02287A
:1011E0001FD828688007F7D42078000722D5864FBB
:1011F00087486169703771B101210160FFF74AFCCE
:10120000064604E0FFF746FC801B022809D8386830
:101210008007F7D50EE0C0F800A0FFF73BFC0646BC
:1012200005E082E0FFF736FC801B02287DD8386895
:101230008007F7D42078400768D5DFF8CCB10027C5
:101240000BF13C0BDBF80000C0000BD4DBF8001006
:1012500041F08051CBF80010DBF80000012700F0CE
:10126000805000906B4E3068C00510D4306840F458
:1012700080703060FFF70EFC009005E0FFF70AFC7D
:101280000099401A022850D83068C005F6D55E4E45
:10129000A0686C3601280FD00528306810D020F0E7
:1012A00001003060306820F004003060A068B8B100
:1012B000FFF7F0FB00900FE0306840F00100F4E72A
:1012C00040F004003060F7E7FFF7E4FB0099411AB3
:1012D00041F28830814266D830688007F4D50EE04C
:1012E000FFF7D8FB009007E0FFF7D4FB0099411A05
:1012F00041F28830814256D830688007F4D42FB14B
:10130000DBF8001021F08051CBF80010A069C8B3C1
:101310003D49091D0968C1F3810102294AD002280B
:10132000504607D0C8F8600000E03CE0FFF7B2FB91
:1013300004463BE04746C8F86000FFF7ABFB0646B3
:1013400005E000BFFFF7A6FB801B02282BD828680A
:101350008001F7D4D4E907010843A16A2E4A49085D
:1013600002EB0141626A41EA8211084394F82C10B1
:1013700040EA0161C9F8001001203866FFF78AFBD6
:10138000044606E03EE000BFFFF784FB001B022896
:1013900009D828688001F7D534E000BFFFF77AFB51
:1013A000001B022802D90320BDE8F88F28688001BD
:1013B000F4D427E00128F7D0D9F80000E26900F45E
:1013C000800191421CD1226A00F03F01914217D165
:1013D00047F6C071626A0140B1EB821F10D1A26A68
:1013E0004FF0FF3300F4403103EB5202B1EB024FF8
:1013F00006D194F82C1000F07060B0EB016F01D0B2
:101400000120D1E70020CFE7043802400000474226
:10141000800E4742007000400000FFFF2DE9FE43B0
:101420000446002603200D4684F83400606C03282F
:101430005ED0B5F5805F5BD04FF4006700204FF0C1
:101440008068BD421FD18146009001900021206834
:1014500001F007F9800113D46946204601F08CFBA6
:1014600007000DD10198400334D5B4F850000104B1
:10147000206801F026F9070002D10221206823E04C
:10148000A06B384328E01DB1A06B40F0006023E062
:101490008146009001900021206801F0E2F880016F
:1014A000EED46946204601F067FB0700E8D10198B9
:1014B000C0030FD5B4F850000104206801F001F911
:1014C0000700DDD10021206801F047F90700D7D1DE
:1014D0004F46D5E74746D3E7A063A06B144F4FF0C4
:1014E000010848B12068876384F8348001260EE043
:1014F000A06B40F08050EFE7211DD4E9050C0EC928
:10150000CDE90050CDF808C0206801F0ADF84FF4E7
:101510000071206801F008F928B121688F63A16B80
:101520000143A163012684F834803046BDE8FE8380
:10153000FF054000F0B5426E920F0A70426EC2F392
:1015400083624A70426EC2F301628A70426E120C6C
:10155000CA70B0F86420120A0A7190F864204A71C7
:10156000826E120DCA80826EC2F303420A72B0F814
:101570006820C2F3C0324A72B0F86820C2F38032E9
:101580008A72B0F86820C2F34032CA72B0F868209C
:10159000C2F300320A7300264E73426C4FF400759A
:1015A000012462B1012A3AD0026847499163816BF4
:1015B00041F08051816380F834400120F0BDB0F8E3
:1015C0006820C36E9205120D42EA93720A61C26EE0
:1015D000C2F3C2620A75C26EC2F302624A75C26E7B
:1015E000C2F342528A75C26EC2F38242CA75C26E9B
:1015F000C2F3C2320A760A69521C42650B7E03F0BE
:1016000007039B1C9A4042650B7A03F00F0704FA0C
:1016100007F383655B0A5A43C0E917250EE090F88B
:101620006820C36E9206920A42EA13420A610A696E
:10163000521C92024265C0E91652056630F86C2FC2
:10164000C2F3803201F8192F0288C2F3C6124A7021
:10165000027802F07F028A704268D20FCA70426834
:10166000C2F341720A714268C2F382624A714268EF
:10167000C2F383528A714268C2F34052CA710E7239
:101680004268C2F300424A728288C2F3C0328A7250
:101690008288C2F38032CA728288C2F340320A73EF
:1016A0008288C2F300324A738288C2F381228A732D
:1016B0008288C2F30122CA730079C0F3460008741D
:1016C0004C740020F0BD0000FF05400070B5040020
:1016D0000ED094F83400002518B92577204600F084
:1016E0004BF8032084F83400204600F00BF808B1D2
:1016F000012070BDA5632563012084F8340000201B
:1017000070BD0000FEB50025044676200095CDE9A9
:10171000015029460B460A46206800F0A5FF28BB69
:10172000134E46F8A05F206800F0B0FF0125356039
:10173000204601F005FB28B184F83450A16B014329
:10174000A16313E0204601F084FA0028F4D14FF49D
:101750000071206800F0E8FF002808D022680549E1
:101760009163A16B0143A16384F834500120FEBD55
:1017700000802542FF054000F0B587B004461421E3
:101780006846FEF735FE1D492068884234D11C4862
:101790000024016841F400610160006800F4006009
:1017A000059017481438016841F001010160016893
:1017B00001F001010591016841F00201016000683A
:1017C000022500F0020005904FF45070CDE90005AD
:1017D00002AA03260C2782E8D00069460948FFF7D1
:1017E00063F848F2A000CDE9000502AA694682E844
:1017F000D0000548FFF758F807B0F0BD002C0140B5
:1018000044380240000002400004024070B5040069
:1018100009D0606A002540B125616561A56294F830
:10182000510040B10CE0012070BD6068B0F5827FCE
:10183000F4D0E561F2E784F85050204600F044F817
:10184000022084F851002068016821F04001016005
:10185000A088218900F4827001F404410843A18921
:1018600001F400610843217C01F002010843217D5D
:1018700001F001010843218B01F400710843217F2D
:1018800001F03801084394F8201001F0800108436A
:10189000218D01F40051084321680860A0690421EA
:1018A00001EA104094F8241001F010010843216867
:1018B00048602068C16921F40061C161656501204B
:1018C00084F85100002070BD2DE9F04786B0044631
:1018D00014216846FEF78CFD4E49DFF834C12368B9
:1018E00000254C4A14390224032605204A4FDFF80C
:1018F0002CA1634525D1136843F48053136012680B
:1019000002F4805205920A6842F001020A600A68F5
:1019100002F0010205920A6842F002020A600968B8
:10192000804601F002010591A0218DE8720169460F
:101930003846FEF7B9FF10208DE871016946504620
:1019400036E0DFF8DCC04FF00608634535D1136898
:1019500043F400531360126802F4005205920A68BF
:1019600042F001020A600A6802F0010205920A6868
:1019700042F002020A600968009401F00201CDE918
:10198000040101AB694683E87000B9463846FEF7AA
:101990008BFF4FF4005047468DE8F10069465046F2
:1019A000FEF782FF4FF400608DE8F100694648467B
:1019B000FEF77AFF06B0BDE8F0871A488342F9D1F6
:1019C000106840F480101060106800F480100590DA
:1019D000086840F002000860086800F00200059006
:1019E000086840F0010008600868694600F00100DE
:1019F000059040F201108DE871015046FEF754FF4A
:101A00004FF480508DE8710169463846D0E70000F8
:101A1000003001404438024000000240000402400F
:101A200000340140005001402DE9F84F044690F881
:101A3000500000271D461646894601280DD04FF05C
:101A4000010B84F850B0FFF725F8804694F8510058
:101A5000BA46012804D0022793E00220BDE8F88F9F
:101A6000B9F1000F73D0002E71D0032084F851001B
:101A7000C4F854A0C4F83090A686E686C4F838A00E
:101A8000A4F83CA0A4F83EA0C4F844A0C4F840A028
:101A9000A068B0F5004F09D12068016821F040012D
:101AA00001602068016841F480410160206801689C
:101AB000490603D4016841F040010160E068B0F5D7
:101AC000006F606803D030B3012E24D041E008B12C
:101AD000012E1CD1206B21680088C86006E02068B8
:101AE0008168890709D5216B0988C160206B801C3A
:101AF0002063E08E401EE08609E0FEF7CBFFA0EBFE
:101B00000800A84202D3681C01D031E07DB3E08E0A
:101B10000028E4D120E0206B21680078087306E0FB
:101B200020688168890709D5216B09780173206BCA
:101B3000401C2063E08E401EE0860AE0FEF7AAFF0C
:101B4000A0EB0800A84203D3681C02D010E017E005
:101B50006DB1E08E0028E3D142462946204601F0CF
:101B600049F908B120206065A06818B106E0FFE7D8
:101B7000032706E02068C16880680090606D00B1AE
:101B8000012784F851B084F850A0384666E710B5B4
:101B9000401EB0F1807F01D3012010BD4FF0E02442
:101BA00060610F21601701F0B0FB0020A0610720E9
:101BB0002061002010BD000070B590F83C20012A83
:101BC0002CD0012480F83C40022280F83D2003689C
:101BD0005A689D6822F070060A6832435A60104BBA
:101BE00002689A420ED0B2F1804F0BD00D4B9A4250
:101BF00008D00D4B9A4205D00C4B9A4202D00C4BA8
:101C00009A4204D1496825F080031943916080F815
:101C10003D40002180F83C10084670BD022070BD98
:101C2000000001400004004000080040000C00409B
:101C300000400140F0B587B0044614216846FEF725
:101C4000D7FB2068002420490225204EB0F1804FA8
:101C500016D01F4A904211D1086840F00200086077
:101C600008680095CDE9015400F00200CDE9045068
:101C7000694603944FEA0600FEF716FE07B0F0BD72
:101C8000086840F001000860086800F00100059055
:101C9000086840F002000860086801270097CDE955
:101CA000015400F00200CDE904706946039409482C
:101CB000FEF7FAFD08200090CDE90154CDE9034775
:101CC00069463046D8E70000303802400004024040
:101CD000000400400000024070B5044690F83C004B
:101CE00000260D4601280FD0012084F83C006AB17F
:101CF000042A1DD0082A2FD00C2A3FD0012600200C
:101D000084F83C00304670BD022070BD206801F0B0
:101D100097F92068816941F0080181612068816933
:101D200021F004018161206881692A69114311E071
:101D3000206801F0ADF92068816941F4006181619A
:101D40002068816921F480618161206881692A6944
:101D500041EA02218161D2E7206801F0C5F92068DB
:101D6000C16941F00801C1612068C16921F0040125
:101D7000C1612068C1692A69114311E0206801F03E
:101D8000DFF92068C16941F40061C1612068C1695F
:101D900021F48061C1612068C1692A6941EA022198
:101DA000C161ACE710B5040003D094F83D0010B158
:101DB00007E0012010BD002084F83C00204600F020
:101DC0001FF8022084F83D00211D206801F0ECF886
:101DD000012084F8460084F83E0084F83F0084F82F
:101DE000400084F8410084F8420084F8430084F8FD
:101DF000440084F8450084F83D00002010BD000038
:101E000008B501680B48B1F1804F0BD00A4A9142E6
:101E100007D1016841F002010160006800F0020092
:101E2000009008BD016841F001010160006800F008
:101E30000100F5E7403802400004004070B504009E
:101E400004D094F83D00002510B106E0012070BDDB
:101E500084F83C50204600F023F8242084F83D000C
:101E60002068C16821F40051C160204601F08AF960
:101E70002068016921F4904101612068416921F0E5
:101E80002A0141612068C16841F40051C1602564A4
:101E9000202084F83D0084F83E00002070BD000042
:101EA000F0B587B0044614216846FEF7A1FA1F4F2B
:101EB000236800221E490224032507261D48BB4231
:101EC00014D11B4B14331F6847F010071F601B68A9
:101ED00003F0100305930B6843F001030B600968DE
:101EE00001F0010105914FF4044115E0124FBB428E
:101EF0001AD10F4B10331F6847F400371F601B685F
:101F000003F4003305930B6843F001030B60096889
:101F100001F0010105910C21CDE9001402AB6946E5
:101F200083E86400FEF7C0FC07B0F0BD001001407C
:101F30003038024000000240004400402DE9F843E0
:101F4000044690F83D001F4616460D4620284CD109
:101F5000C5B1BEB194F83C00012846D0012084F8F8
:101F60003C004FF00008C4F84080212084F83D0078
:101F7000FEF790FDA6848146E684A068B0F5805FF8
:101F800003D004E00120BDE8F883206928B12E4683
:101F90005FF0000584F83C800EE00026FAE780211F
:101FA000204601F075F9A0B9AEB116F8010B216811
:101FB0004860E08C401EE084E08C4B464FF000020D
:101FC00000970028EBD14FF04001204601F060F966
:101FD00030B10320D7E735F8020BC0F30800E6E77D
:101FE000202084F83D000020CDE70220CBE7FEE76B
:101FF00001684A69D24352050FD46FF480624A6186
:10200000002140F8301F202242738173026942F0A0
:102010000402026101730120704700207047000034
:10202000F8B50446C06A1E460D461746082807D074
:10203000012805D010F5803F02D0206B122804D172
:102040002068016841F480710160134600224FF05E
:1020500001112046009600F057F840B12068006852
:10206000C00502D54FF4007020640320F8BD20693C
:10207000B0F5804F0ED00620216800EAD51040F060
:10208000F000086133463A460B49204600F070F8EC
:1020900078B902E005F0FE0000E0E8B221680861CE
:1020A000054933463A46891F204600F061F800286A
:1020B000DCD00120F8BD00000800010070B5164614
:1020C0000D4604460DE02046FFF792FF08B10120BF
:1020D00070BD681C05D0FEF7DDFC801BA84207D848
:1020E00035B120684069C0434007ECD4002070BD82
:1020F000002044F8300F20216173A073216941F062
:10210000200121612073E2E72DE9F0471E46904649
:102110000D460446C1F30747DDF8209008E0701C27
:1021200006D0FEF7B7FCA0EB0900B0420FD876B19D
:102130002068012F18D0806925EA00000004000CF7
:1021400014D000214145EAD00020BDE8F0870020EE
:1021500044F8300F20216173A073216941F0200100
:10216000216120730120F0E74069E5E70121E9E7FB
:102170002DE9F0479A4691460E46044600254FF059
:102180002008C1F3074725E020684069C0434005A7
:1021900014D42068016841F40071016021686FF473
:1021A00080604861256384F83D8084F83E50206C4F
:1021B00040F00400206484F83C501FE0B9F1FF3F78
:1021C00008D0FEF767FCA0EB0A0149450CD8B9F12D
:1021D000000F09D02068012F13D0806926EA000083
:1021E0000004000C0BD0CFE744F8305F84F80D807A
:1021F000A573206940F02000206125730120BDE80F
:10220000F0874069EAE770B516460D4604460DE0D2
:102210002046FFF7EDFE08B1012070BD681C05D017
:10222000FEF738FC801BA84207D835B1206840690A
:10223000C0430006ECD4002070BD002044F8300FED
:1022400020216173A073216941F020012161207375
:10225000E2E700007FB50024154800940194029441
:102260001249039401604FF48031C0E90114046104
:10227000047680F820400F49C0E90A140125C561A1
:10228000C46080F830404561FEF7A2FA08B1FEF75D
:10229000DBF90420CDE90005694602940448FEF705
:1022A000E5F9002801D0FEF7CFF97FBD00200140FD
:1022B000A40000200100000F2DE9F04387B0142195
:1022C0006846FEF795F82D480024016841F00401A6
:1022D0000160016801F004010591016841F080018D
:1022E0000160016801F080010591016841F0010180
:1022F0000160016801F001010591016841F00201EE
:1023000001600068DFF8788000F002004FF4C045FB
:102310000590002229464046FEF7B6FBDFF86490A0
:102320004FF4A847002239464846FEF7ADFB00951A
:102330000125CDE90154694640460394FEF7B4FAFD
:10234000E8034FF48816CDE900066946029440463A
:10235000FEF7AAFA0420CDE9000669460294484631
:10236000FEF7A2FA0097CDE9015469464846039466
:10237000FEF79AFA07B0BDE8F0830000303802405B
:1023800000080240000402400D4810B50B490160EE
:102390000C49416000214FF480428160C0E9031282
:1023A00041618161C1610162FEF77AFB002803D0BF
:1023B000BDE81040FEF748B910BD000000540040D1
:1023C000EC000020A08601000E4810B50C49016009
:1023D000002141608160C160016141618161FFF75D
:1023E00075F908B1FEF730F94FF400610548FFF7C1
:1023F00015F8002803D0BDE81040FEF725B910BD40
:10240000002C0140400100200F4810B50D4901602B
:102410004FF48271416000218160C1604FF400720D
:102420000161C0E90512C1610162416281620A2154
:10243000C162FFF7EBF9002803D0BDE81040FEF7BA
:1024400003B910BD00300140C40100200F4810B591
:102450000D4901604FF48271416000218160C160CB
:102460004FF400720161C0E90512C161016241626D
:1024700081620A21C162FFF7C9F9002803D0BDE8D3
:102480001040FEF7E1B810BD003401401C020020EE
:102490000F4810B50D4901604FF482714160002171
:1024A0008160C1604FF400720161C0E90512C16131
:1024B0000162416281620A21C162FFF7A7F9002827
:1024C00003D0BDE81040FEF7BFB810BD005001407A
:1024D0007402002010B58AB0002407941C216846BD
:1024E0000894FDF785FF19484FF08041C0E90014BA
:1024F000611EC0E9024104618461FFF753FC08B129
:10250000FEF7A2F8079407A910480894FFF754FBB8
:1025100008B1FEF799F86020CDE90004029400228A
:1025200069460A480494FFF7D7FB08B1FEF78CF818
:10253000042269460548FFF7CFFB08B1FEF784F88F
:102540000248FFF777FB0AB010BD0000CC02002064
:1025500010B58AB0002407941C2168460894FDF742
:1025600047FF16481449C0E900144FF6FF71C0E94F
:10257000024104618461FFF715FC08B1FEF764F8BD
:10258000079407A90D480894FFF716FB08B1FEF75A
:102590005BF86020CDE9000402940C2269460748EC
:1025A0000494FFF799FB08B1FEF74EF80348FFF7D4
:1025B00041FB0AB010BD00000004004014030020DD
:1025C0000C4810B50A4901604FF4E1314160002127
:1025D00081600C22C160C0E904128161C161FFF712
:1025E0002DFC002803D0BDE81040FEF72DB810BD2B
:1025F000001001405C0300200C4810B50A4901603E
:102600004FF4E1314160002181600C22C160C0E9DA
:1026100004128161C161FFF711FC002803D0BDE8FD
:102620001040FEF711B810BD00440040A003002088
:10263000FEE7FEE770470A6842624A688262D1E9B3
:1026400002231A43D1E904310B43C16A1A4321F032
:10265000F7011143C16200207047006800F00300D9
:10266000704708444069704770B50DF1100C114374
:102670009CE870002343194329434268314347F6DD
:10268000FF639A430A434260002070BD10B50321E6
:1026900001600220FEF7F6F8002010BDD0F880009F
:1026A00070470A688260D1E901231A43D1E90331F6
:1026B0000B43C1681A436FF30B011143C160002043
:1026C000704710B586B004463720CDE90010402091
:1026D0000290002003904FF48060049069462046E9
:1026E000FFF7DFFF41F288323721204600F026F95C
:1026F00006B010BD10B504460A4886B00143292033
:10270000CDE9001040200290002003904FF480603B
:10271000049069462046FFF7C4FF204600F0C6F942
:1027200006B010BD0000108010B586B00446102021
:10273000CDE9001040200290002003904FF480600B
:10274000049069462046FFF7ACFF41F28832102121
:10275000204600F0F3F806B010BD10B586B0044670
:102760000620CDE9001040200290002003904FF495
:102770008060049069462046FFF793FF41F288325B
:102780000621204600F0DAF806B010BD30B585B05D
:1027900000240546009401944FF480600294CDE932
:1027A000034069462846FFF77CFF0B484FF4FA5177
:1027B0000068B0FBF1F041F288314843401E03D27B
:1027C0004FF0004005B030BD696B0906F6D5C52055
:1027D000A8632046F6E700003800002070B585B0F9
:1027E00004464FF4D570009001A90820402500262A
:1027F00081E86100C001049069462046FFF751FF5F
:1028000012484FF4FA510068B0FBF1F041F2883100
:102810004843401E03D24FF0004005B070BD616BCD
:1028200011F0450FF5D00905F3D4606B400701D5D1
:10283000042003E0606BC00702D00120A063ECE736
:10284000606B400600D5A5633046E6E738000020FF
:1028500010B586B004460720CDE900204020029044
:10286000002003904FF48060049069462046FFF7F3
:1028700018FF41F288320721204600F05FF806B0C9
:1028800010BD10B586B0044600210220CDE900102D
:10289000C020CDE902014FF48060049069462046D3
:1028A000FFF7FFFE204600F0D9F806B010BD10B5C6
:1028B00086B004460920CDE90010C0200290002017
:1028C00003904FF48060049069462046FFF7E9FECC
:1028D000204600F0C3F806B010BD10B586B004461F
:1028E00000213320CDE900104020CDE90201000194
:1028F000049069462046FFF7D4FE41F28832332126
:10290000204600F01BF806B010BD30B585B00C466F
:10291000054600210320CDE900104020CDE9020149
:102920000001049069462846FFF7BBFE22460321BA
:10293000284600F0DDF805B030BD0000454B10B56D
:102940001B684FF4FA54B3FBF4F353435B1E02D2FB
:102950004FF0004010BD426B12F0450FF6D012054B
:10296000F4D4426B520703D504218163084610BD9D
:10297000426BD20702D00121816305E0C522826348
:102980000269D2B28A4201D0012010BD0021FFF7B6
:1029900068FE3149084201D1002010BD002802DA4A
:1029A0004FF0007010BD410001D5402010BD8100E6
:1029B00001D5802010BDC10002D54FF4807010BD3C
:1029C000010102D54FF4007010BD410102D54FF452
:1029D000806010BDC10102D54FF4006010BD01023E
:1029E00002D54FF4805010BD410202D54FF4005083
:1029F00010BD810202D54FF4804010BDC10202D546
:102A00004FF4004010BD410302D54FF4003010BD1B
:102A1000810302D54FF4802010BDC10302D54FF4CD
:102A2000002010BD010402D54FF4801010BD4104F8
:102A300002D54FF4001010BD810402D54FF4800080
:102A400010BD000702D54FF4000010BD4FF48030D8
:102A500010BD00003800002008E0FFFD12494FF4CF
:102A6000FA520968B1FBF2F141F288325143491E32
:102A700002D24FF000407047426B12F0450FF6D083
:102A80001205F4D4416B490703D50421816308463C
:102A90007047416BC90703D0012181630846704725
:102AA000C521816300207047380000200F494FF492
:102AB000FA520968B1FBF2F141F288325143491EE2
:102AC00002D24FF000407047426B12F0450FF6D033
:102AD0001205F4D4416B490703D5042181630846EC
:102AE0007047C52181630020704700003800002036
:102AF00030B5204B4FF4FA541B68B3FBF4F341F2AA
:102B0000883463435B1E02D24FF0004030BD446BFB
:102B100014F0450FF6D02405F4D4436B5B0703D5BE
:102B200004218163084630BD436BDB0702D00121DD
:102B3000816303E00369DBB28B4201D0012030BD29
:102B4000C52181630021FFF78CFD10F4604F04D094
:102B5000410406D54FF4005030BD000C1080002019
:102B600030BD000402D54FF4805030BD4FF48030AA
:102B700030BD0000380000202DE9F04788B00D4638
:102B80000446FDF787FF00268246009601963746E9
:102B900008212068FFF7C8FD002829D1B4F85000AB
:102BA00001042068FFF78DFD002821D1401E4FF061
:102BB0000808CDE9020830204FF00209CDE90409E8
:102BC0000120CDE9067002A92068FFF734FD2068D6
:102BD000FFF783FE00280BD16F462068416B11F090
:102BE0002A0F08D0416B09071AD5C0F83880082091
:102BF00008B0BDE8F087416B890205D5FFF74EFDAF
:102C000047F82600761C02E0416B8904EAD5FDF7FF
:102C100041FFA0EB0A00401CDFD14FF00040E7E786
:102C2000416B890703D5C0F838900220E0E7416B7B
:102C3000890603D5202181630846D9E740F23A513D
:102C40008163019800BA2860009800BA686000208B
:102C5000CEE710B590B004460120ADF838002068EA
:102C6000FFF7FBFC002854D0606C032842D020689A
:102C7000FFF707FE00284AD100212068FFF7F1FC8A
:102C8000606704212068FFF7ECFCA067082120683A
:102C9000FFF7E7FCE0670C212068FFF7E2FCC4F8CF
:102CA0008000606C032825D00EA92068FFF72DFE58
:102CB00000282CD1606C03281CD0BDF8380020659A
:102CC00001042068FFF7F3FD002820D100212068CF
:102CD000FFF7C7FC606604212068FFF7C2FCA0660E
:102CE00008212068FFF7BDFCE0660C212068FFF793
:102CF000B8FC206704212068FFF7B3FC000DE064F6
:102D000003A92046FEF716FC30B14FF0805010B0FA
:102D100010BD4FF08060FAE7B4F8500000230204C1
:102D20002068FFF795FD0028F1D104F1100007C8D5
:102D30008DE8070094E80F00FFF796FC0020E6E717
:102D40002DE9F84F0026044600963546B046006847
:102D5000FFF71CFD002827D12068FFF73FFD4FF04B
:102D6000805B4FF001094FF6FF7748B1A6642068F9
:102D7000FFF70CFD002817D1A06C012802D020E03D
:102D8000C4F8489000212068FFF79BFC58B918E070
:102D900000212068FFF795FC002805D151462068E6
:102DA000FFF7A8FC10B15846BDE8F88F0021206855
:102DB000FFF757FC05464FEAD0780098401C00907A
:102DC00002E0DFF82CA00098B84202D2B8F1000F60
:102DD000DED00098B84202D34FF08070E4E768007C
:102DE00002D5C4F8449000E066640020DCE70000EF
:102DF000000010C138B504461248134B0068B0FB00
:102E0000F3F04FF47A73584300906068B0F5827F16
:102E10000DD10B46009200228021204600F016F8CA
:102E200070B1606D40F020006065032038BD0098EF
:102E300030B1401E009020688068C0430006F6D57F
:102E4000002038BD3800002000366E012DE9F8431F
:102E50001E46914688460446089DFDF71BFE401B12
:102E6000351AFDF717FE074625480068C0F3CB303A
:102E7000684338E0701C37D0FDF70CFEC01BA84239
:102E800003D215B1009860B32CE02068416821F0AE
:102E9000E00141606068B0F5827F0BD1A068B0F5B9
:102EA000004F02D0B0F5806F04D12068016821F096
:102EB00040010160A06AB0F5005F09D12068016897
:102EC00021F4005101602068016841F40051016063
:102ED000012084F85100002084F850000320BDE850
:102EE000F8830025401E00902068816838EA0100C0
:102EF00004D000214945BDD10020F0E70121F9E7C8
:102F0000380000207047FDF75BBF000030B593B07C
:102F100030216846FDF76CFA14210CA8FDF768FA19
:102F20001B480025016841F080510160006800F0F5
:102F3000805011901748016841F4404101600068D9
:102F4000022400F440401190012000900004019000
:102F50008001CDE906400C2008906020CDE90904ED
:102F600005200B906846FEF7A3F860B90CA90F2066
:102F700081E83100E002CDE90F0503210CA8FDF73F
:102F8000ABFF002801D0FDF75FFB13B030BD0000A0
:102F900040380240007000400248016841F470016E
:102FA0000160704788ED00E0F0B502681D4B1E4CD3
:102FB0009F031E4D1E4E984207D0B84205D0A04236
:102FC00003D0A84201D0B04204D122F0700C4A686C
:102FD00042EA0C02984210D0B8420ED0A0420CD067
:102FE000A8420AD0B04208D0124CA04205D0124CE0
:102FF000A04202D0114CA04203D122F44074CA680E
:1030000022434C6922F08002224302608A68C26235
:103010000A688262984201D1096901630121416114
:10302000F0BD000000000140000400400008004026
:10303000000C0040004001400044014000480140B5
:1030400030B5026A22F001020262026A43688469B2
:1030500024F073050C682C4322F002058A682A4389
:103060000A4DA8420BD122F00805CA6823F4407328
:103070002A434D6922F004021D438B692B434360B0
:10308000846149684163026230BD00000000014074
:1030900030B5026A22F010020262026A4368846953
:1030A0000D6824F4E64444EA05248D6822F02002E9
:1030B00042EA05120B4DA8420ED1CD6822F08002E3
:1030C00042EA05124D6923F4406343EA85038D69A2
:1030D00022F0400243EA85034360846149688163CA
:1030E000026230BD0000014030B5026A22F48072F5
:1030F0000262036A4268C46923F4007324F0730512
:103100000C682C438D6843EA05230C4DA8420ED170
:10311000CD6823F4006343EA05234D6922F440524D
:1031200042EA05128D6923F4806342EA0512426087
:10313000C4614968C163036230BD00000000014002
:1031400030B5026A22F480520262046A4268C3699E
:103150000D6823F4E64343EA05238D6824F4005404
:1031600044EA0534064DA84204D14D6922F4804258
:1031700042EA85124260C36149680164046230BD5D
:103180000000014070B5044600680169E26821F45E
:103190004051114301612169A068E26908436169F6
:1031A000114308432168CA6849F20C639A430243F9
:1031B000CA6020684169A26921F4407111434161EC
:1031C00031492068884202D03049884202D1FDF757
:1031D0002DFF01E0FDF71AFFE269002319216425A4
:1031E0003226B2F5004F626828D0A0FB0101930F90
:1031F0009200FDF741F80146B0FBF5F06FF01802C0
:10320000504301EB800006EB0010B0FBF5F000F03E
:10321000F002B1FBF5F002EB0012B1FBF5F06FF03C
:103220001803584301EB800006EB0010B0FBF5F0EB
:1032300000F00F0021681044886070BDA0FB010100
:1032400092185B41FDF718F80146B0FBF5F002015A
:10325000B1FBF5F06FF01803584301EB800006EB6B
:10326000C000B0FBF5F000F0F80002EB4002B1FB4B
:10327000F5F0584301EB800006EBC000B0FBF5F021
:1032800000F00700D6E700000010014000140140E4
:103290002DE9F041984617460E460446069D27E064
:1032A000681C25D02DB1FDF7F5FBA0EB0800A84266
:1032B0001ED920680C3050E8001F21F4D07140E87E
:1032C0000012002AF5D12068143050E8001F21F0C8
:1032D000010140E80012002AF5D1202084F83D00C9
:1032E00084F83E00002084F83C000320BDE8F08113
:1032F0002068006836EA000004D00020B842CFD031
:103300000020F3E70120F9E7FEE70907090E00288E
:1033100004DB00F1E02080F80014704700F00F009B
:1033200000F1E02080F8141D7047000008B5FDF79B
:103330004FFDFFF7EBFDFEF7BFFFFFF725F8FFF7A7
:1033400043F8FFF761F8FFF781F8FFF7A1F8FFF7FF
:10335000C1F8FFF7FDF8FFF733F9FFF74DF9FEF776
:1033600079FF0122DFF89880150329464046FDF7D2
:103370008BFB244980200A460870642000900123BA
:1033800070212148FDF750FC322220A12C48FCF787
:10339000EAFF2B4C0D262A4804F8326F0A27677083
:1033A000322228A13430FCF7DEFF84F8346084F840
:1033B00035704FF4FA642046FDF764FAA946474693
:1033C0002D4E4FF47A786D00002249463846FDF7BD
:1033D0005BFB434634221A492848FEF725FB0122AD
:1033E00029463046FDF750FB2046FDF74BFA0022F8
:1033F00029463046FDF748FB2046FDF743FAE3E750
:103400000004024000000020EC0000203132332E86
:103410003132333435362C3132332E313233343588
:10342000362C31323334352C3132333435362C317D
:1034300032332C3132332C3132332C332E330000E3
:103440003C0000203333332E3333333333332C33C8
:1034500033332E3333333333332C31323334352C4F
:103460003132333435362C3132332C3132332C3146
:1034700032332C372E37000000080240C4010020F0
:103480004FF04070E1EE100A7047000000000000AD
:103490000000010203040607080900000000010201
:1034A00003040000C4340008000000203C000000B9
:1034B000D4010008003500083C0000200C0A000080
:1034C000F001000800004E6F2053442043617264F5
:1034D0002C20506C6561736520496E736572742091
:1034E000616E6420726573746172740D0A0000006D
:1034F0000100000010000000000000000024F400A3
:040000050800019955
:00000001FF
